S0160000726F626F74335F70726F6A6563742E737265635F
S113000087C00000AEC00000ACC00000AAC0000061
S1130010A8C00000A6C00000A4C00000A2C0000048
S1130020A0C000009EC00000F1C400009AC00000FF
S113003098C0000096C0000094C0000092C0000068
S113004090C000008EC000008CC000008AC0000078
S113005088C0000086C0000084C0000082C0000088
S113006080C000007EC000007CC000007AC0000098
S113007078C0000076C0000074C0000072C00000A8
S113008070C000006EC000006CC0000008000000DA
S1130090BE922449123EABAAAA2ABECDCCCC4C3E79
S11300A000000080BEABAAAAAA3E00000000BF0068
S11300B00000803F0000000000084178D3BB438764
S11300C0D1133D190E3CC3BD4282AD2B3E68EC8278
S11300D076BED98FE1A93E4C80EFFFBE01C4FF7FFD
S11300E03F000000000007634236B79BD8A71A39C7
S11300F0685618AEBAAB558C1D3CB7CC5763BD6D72
S1130100EDFD753EF6177231BF000000803F930786
S113011011241FBECFEFD0E1DEBFCDBF12E0A0E0BF
S1130120B1E0ECEFF5E100E00BBF02C007900D92E7
S1130130AC30B107D9F723E0ACE0B2E001C01D92C6
S1130140AC30B207E1F710E0C8E8D0E004C0219772
S1130150FE010E94F30AC738D107C9F7B7D40C943B
S1130160FC0A4ECF019719F56F3F7F4F01F560915F
S113017008027091090280910A0290910B029B017E
S1130180AC01D8D62BED3FE049E450E40E9470095D
S11301909B01AC0160E070E080E89FE32FD760939F
S11301A0F6027093F7028093F8029093F90208958F
S11301B0CF92DF92EF92FF929B01AC016091040217
S11301C07091050280910602909107020E947009C5
S11301D06B017C016091F6027091F7028091F80244
S11301E09091F9022091EE023091EF024091F002D9
S11301F05091F1020E9470099B01AC01C701B60144
S113020099D66B017C016091F6027091F70280919E
S1130210F8029091F9022091040230910502409174
S113022006025091070286D69B01AC01C701B601B4
S1130230E5D66093F2027093F3028093F4029093F4
S1130240F5028091F2029091F302A091F402B09130
S1130250F5028093EE029093EF02A093F002B09324
S1130260F1026091F2027091F3028091F402909194
S1130270F502FF90EF90DF90CF900895CF93DF9336
S11302801092C0021092C1021092C2021092C302D4
S1130290E091C402F091C502EE0FFF1FEE0FFF1FA5
S11302A0EA53FD4F6083718382839383C0E0D0E07F
S11302B0CA30D105F4F4FE01EE0FFF1FEE0FFF1F4D
S11302C0EA53FD4F60817181828193812091C00244
S11302D03091C1024091C2025091C3022BD6609367
S11302E0C0027093C1028093C2029093C30221960C
S11302F0DFCF8091C4029091C502099729F410922E
S1130300C5021092C40209C08091C4029091C50232
S113031001969093C5028093C4026091C0027091CB
S1130320C1028091C2029091C30220E030E040E219
S113033051E464D6DF91CF9108958F929F92AF924A
S1130340BF92CF92DF92EF92FF920F931F93CF93BE
S1130350DF936B017C0182E090E01816190654F5D6
S1130360AC01415051099A01220F331F220F331F50
S1130370F901EC54FD4F80809180A280B380880FF6
S1130380991F880F991FFC01EC54FD4F80829182C4
S1130390A282B382F901E855FD4F008111812281C7
S11303A03381FC01E855FD4F00831183228333839D
S11303B0CA01D3CFC4EBD2E0C882D982EA82FB82DD
S11303C008EF11E0F80160817181828193812881B5
S11303D039814A815B8184D76B017C01F801648196
S11303E07581868197812C813D814E815F8178D78B
S11303F09B01AC01C701B6019DD56B017C01F801DD
S11304006085718582859385288539854A855B85D4
S113041067D79B01AC01C701B6018CD56B017C0188
S11304200CEE11E0F8016481758186819781C8EA38
S1130430D2E02C813D814E815F8152D79B01AC017A
S1130440C701B60176D56B017C01F8016085718521
S113045082859385288539854A855B8541D79B01AB
S1130460AC01C701B60165D5688379838A839B8310
S1130470688179818A819B81DF91CF911F910F914E
S1130480FF90EF90DF90CF90BF90AF909F908F90B0
S11304900895CF92DF92EF92FF92CF93DF936B0197
S11304A07C018EE190E018161906DCF49C012150C1
S11304B03109F901EE0FFF1FEE0FFF1FE45DFD4F41
S11304C04081518162817381880F991F880F991F20
S11304D0FC01E45DFD4F4083518362837383C90152
S11304E0E2CFC0922C02D0922D02E0922E02F09222
S11304F02F02109228021092290210922A021092BE
S11305002B02C0E0D0E0CF31D1054CF59E01220F83
S1130510331F220F331FF901E059FE4F60817181AF
S113052082819381F901E45DFD4F20813181428113
S11305305381C0902802D0902902E0902A02F090C2
S11305402B02CED6A7019601F5D4609328027093AE
S1130550290280932A0290932B022196D4CF609192
S113056028027091290280912A0290912B02DF9136
S1130570CF91FF90EF90DF90CF9008958F929F924C
S1130580AF92BF92CF92DF92EF92FF920F931F939D
S1130590CF93DF936B017C0182E090E0181619067B
S11305A054F5AC01415051099A01220F331F220F17
S11305B0331FF901E45EFD4F80809180A280B380F7
S11305C0880F991F880F991FFC01E45EFD4F8082FC
S11305D09182A282B382F901E05FFD4F0081118113
S11305E022813381FC01E05FFD4F0083118322836C
S11305F03383CA01D3CFCCE1D2E0C882D982EA8264
S1130600FB8204E611E0F8016081718182819381AB
S1130610288139814A815B8163D66B017C01F801B1
S113062064817581868197812C813D814E815F81B2
S113063057D69B01AC01C701B6017CD46B017C0188
S1130640F8016085718582859385288539854A8579
S11306505B8546D69B01AC01C701B6016BD46B0127
S11306607C0108E511E0F801648175818681978138
S1130670C0E1D2E02C813D814E815F8131D69B0166
S1130680AC01C701B60155D46B017C01F80160854A
S1130690718582859385288539854A855B8520D631
S11306A09B01AC01C701B60144D4688379838A8372
S11306B09B83688179818A819B81DF91CF911F918E
S11306C00F91FF90EF90DF90CF90BF90AF909F90ED
S11306D08F900895CF92DF92EF92FF92CF93DF93A2
S11306E06B017C018AE090E018161906DCF49C0189
S11306F021503109F901EE0FFF1FEE0FFF1FE45DDA
S1130700FE4F4081518162817381880F991F880F48
S1130710991FFC01E45DFE4F408351836283738320
S1130720C901E2CFC0922C01D0922D01E0922E019A
S1130730F0922F0110920C0210920D0210920E02F0
S113074010920F02C0E0D0E0CB30D1054CF59E01F1
S1130750220F331F220F331FF901E050FF4F608136
S1130760718182819381F901E45DFE4F20813181A1
S113077042815381C0900C02D0900D02E0900E0291
S1130780F0900F02ADD5A7019601D4D360930C026B
S113079070930D0280930E0290930F022196D4CF92
S11307A060910C0270910D0280910E0290910F02E3
S11307B0DF91CF91FF90EF90DF90CF90089597B1A4
S11307C0987F8770892B87B986B1806486B93699FA
S11307D0FECF84B195B10895CF92DF92EF92FF924C
S11307E020E030E044EB52E409D420E030E040E083
S11307F05FE3A0D320E030E040EA51E4FFD320E0FF
S113080030E048EC52E46CD520E030E048EC52E4AF
S1130810F5D36B017C01609180007091810080E0D0
S113082090E085D4A70196015BD550D4E2E8F0E0CE
S11308307183608380819181FF90EF90DF90CF90EE
S1130840089580E0BCDFBC0180E090E070D4B0DCAF
S113085020E030E040EA50E443D520E030EC4FE7BC
S113086054E4CCD333D4072E000C880B990B61C409
S1130870089581E0A4DFBC0180E090E058D45DDD00
S11308802AD480E090E053D420E030E040EA50E401
S113089027D520E030EC4FE754E4B0D39B01AC0102
S11308A060E078E987EB96E4A9D320E030EE42E9F2
S11308B055E43FD3CAD423E134E443E950E439D3C3
S11308C02DEC3CEC4CE45FE399D39B01AC0160E07C
S11308D070E080E89FE32DD39B01AC0160E070E001
S11308E080E291E460D5F2D3072E000C880B990BBB
S11308F020C483E064DFBC0180E090E018D4BEDC57
S1130900EAD380E090E013D420E030E040EA50E401
S1130910E7D420E030E040E85AE3E2D49B01AC01A4
S113092060E070E080EA90E469D320E030EE42E9D0
S113093055E4D6D420E030EE42E955E4FAD220E082
S113094030E04AE754E45AD38BD428EA37EA4FE834
S113095059E3C6D420ED34E448E55BE3EBD29B01D4
S1130960AC0160E070E080E89FE348D323E333E91F
S113097048E853E4DED2AAD3072E000C880B990B67
S1130980D8C384E01CDFBC0180E090E0D0D3F6DD66
S1130990A2D380E090E0CBD320E030E040EA50E402
S11309A09FD420E030E040E85AE39AD420E030E0DD
S11309B04AE754E495D42FE93BEA4DE25EE3B9D229
S11309C09B01AC0168E471EE8CED91E417D320E057
S11309D030E04AE754E484C485E0F1DEBC0180E001
S11309E090E0A5D356DD72D3072E000C880B990B2B
S11309F0A0C386E0E4DEBC0180E090E098D36ADE28
S1130A0065D3072E000C880B990B93C31F920F928A
S1130A100FB60F9211240BB60F922F933F934F935F
S1130A205F936F937F938F939F93AF93BF93EF9352
S1130A30FF9380910A0390910B03019690930B030B
S1130A4080930A03FEDE47D3709305036093040387
S1130A5010DF41D370930303609302034ADF3BD357
S1130A6070930103609300038CDF35D37093FF020E
S1130A706093FE02B1DF2FD37093FD026093FC02FA
S1130A80B8DF29D37093FB026093FA0280910A03C2
S1130A9090910B038436910521F410920B0310926C
S1130AA00A0384E684BDFF91EF91BF91AF919F91BA
S1130AB08F917F916F915F914F913F912F910F9003
S1130AC00BBE0F900FBE0F901F9018958FEF8ABB2F
S1130AD090E797BB98E392B98BBB18BA83B910928D
S1130AE0610087E886B987E689B9109290001BB83F
S1130AF088E18AB986E08093950083B7886483BFD0
S1130B0083B7806283BF83B7866083BF82EA8FBD69
S1130B102BE12EBD87E893E197BD86BD35E235BD57
S1130B2030E437BF34E634BD3AEA30938B00209387
S1130B308A009093810080938000789480910403CC
S1130B4090910503009709F456C082309105F9F09D
S1130B5028F4009751F0019769F07CC08430910526
S1130B6081F110F10597D1F175C0109287001092B0
S1130B70860070C08AE090E090938700809386009E
S1130B8084E991E1909385008093840063C080EDB3
S1130B9097E0909387008093860084E991E1909395
S1130BA085008093840056C088EB9BE09093870077
S1130BB08093860084E991E190938500809384007A
S1130BC049C080EA9FE0909387008093860084E97F
S1130BD091E190938500809384003CC087E893E181
S1130BE0909387008093860084E991E19093850037
S1130BF0809384002FC0809102039091030387396E
S1130C00910538F484E991E1909385008093840000
S1130C1021C09C01265931092B3F310538F488EB5A
S1130C209BE0909385008093840014C09C0120591C
S1130C3031402139314038F48CED95E090938500B2
S1130C408093840007C08032934020F01092850086
S1130C501092840080910003909101038D319105DD
S1130C6018F41BBC1ABC4FC08D31910571F466B5E4
S1130C7077B580E090E05BD22DEC3CEC4CE45EE395
S1130C802FD329D27BBD6ABD3EC08E31910571F44C
S1130C9066B577B580E090E04AD22DEC3CEC4CECA4
S1130CA05EE31ED318D27BBD6ABD2DC08F31910582
S1130CB071F466B577B580E090E039D22AE939E974
S1130CC049E15FE30DD307D27BBD6ABD1CC080320E
S1130CD0910571F466B577B580E090E028D22DECEB
S1130CE03CEC4CE45FE3FCD2F6D17BBD6ABD0BC0A7
S1130CF0819729F486B597B59BBD8ABD04C086B596
S1130D0097B59BBD8ABD8091FE029091FF02893107
S1130D10910568F080E090E0ACEDB2E480930603C6
S1130D2090930703A0930803B093090354C09C0154
S1130D30245131092530310568F480E090E0A4EBBA
S1130D40B2E48093060390930703A0930803B0933F
S1130D50090341C09C012F5031092530310568F445
S1130D6080E090E0A0E7B2E4809306039093070349
S1130D70A0930803B09309032EC09C012B503109A2
S1130D802430310568F480E090E0A0EFB1E4809372
S1130D90060390930703A0930803B09309031BC0B1
S1130DA00B9768F480E090E0A0E2B1E4809306033E
S1130DB090930703A0930803B09309030CC080E049
S1130DC090E0A0E2B1EC8093060390930703A09314
S1130DD00803B0930903609106037091070380919F
S1130DE0080390910903F8DC8091FC029091FD02C4
S1130DF08536910550F48DED9DE197BD86BD86B590
S1130E0097B5019799BD88BD5EC09C0125563109EF
S1130E102233310558F48EEE9EE097BD86BD86B52B
S1130E2097B59695879599BD88BD4DC09C01275966
S1130E3031092233310558F487E797E097BD86BD21
S1130E4086B597B59695879599BD88BD3CC09C019C
S1130E50295C31092233310558F48BEB93E097BDBB
S1130E6086BD86B597B59695879599BD88BD2BC0E7
S1130E709C012B5F31092233310558F48DED91E04B
S1130E8097BD86BD86B597B59695879599BD88BD5E
S1130E901AC08D529140883C910558F48EEE90E032
S1130EA097BD86BD86B597B59695879599BD88BD3E
S1130EB00AC08EEE90E097BD86BD86B597B596952F
S1130EC0879599BD88BD8091FA029091FB02843880
S1130ED043E0940710F011BE31CE9C0128553240F6
S1130EE02C32314018F482E381BF28CE9C01205972
S1130EF03140283C310518F486E981BF1FCE9C019E
S1130F002C5231402436310518F488EC81BF16CEBA
S1130F1084569109883C910518F48FEF81BF0ECE59
S1130F208FEF81BF0BCE6FEF7FEF81E090E01AC9A6
S1130F3008955058BB27AA270ED04DC13ED130F09A
S1130F4043D120F031F49F3F11F41EF433C10EF469
S1130F50E095E7FB29C1E92F4FD180F3BA17620767
S1130F6073078407950718F071F49EF567C10EF4B2
S1130F70E0950B2EBA2FA02D0B01B90190010C01A5
S1130F80CA01A0011124FF27591B99F0593F50F4BD
S1130F90503E68F11A16F040A22F232F342F442715
S1130FA0585FF3CF469537952795A795F04053950D
S1130FB0C9F77EF41F16BA0B620B730B840BBAF0DD
S1130FC09150A1F0FF0FBB1F661F771F881FC2F748
S1130FD00EC0BA0F621F731F841F48F4879577955C
S1130FE06795B795F7959E3F08F0B3CF9395880F13
S1130FF008F09927EE0F9795879508950CD0EBC0CC
S1131000E3D040F0DAD030F021F45F3F19F0CCC0E7
S1131010511115C1CFC0F0D098F39923C9F35523CA
S1131020B1F3951B550BBB27AA27621773078407D7
S113103038F09F5F5F4F220F331F441FAA1FA9F38D
S113104033D00E2E3AF0E0E830D091505040E6957F
S1131050001CCAF729D0FE2F27D0660F771F881FE0
S1131060BB1F261737074807AB07B0E809F0BB0BCF
S1131070802DBF01FF2793585F4F2AF09E3F5105F3
S113108068F092C0DCC05F3FECF3983EDCF38695D9
S113109077956795B795F7959F5FC9F7880F911D69
S11310A09695879597F90895E1E0660F771F881F55
S11310B0BB1F621773078407BA0720F0621B730B08
S11310C0840BBA0BEE1F88F7E095089504D068945A
S11310D0B111B5C0089598D088F09F5790F0B92FFA
S11310E09927B751A0F0D1F0660F771F881F991F79
S11310F01AF0BA95C9F712C0B13081F09FD0B1E0AF
S113110008959CC0672F782F8827B85F39F0B93FBE
S1131110CCF3869577956795B395D9F73EF490957A
S11311208095709561957F4F8F4F9F4F0895E894F8
S113113009C097FB3EF490958095709561957F4F1B
S11311408F4F9F4F9923A9F0F92F96E9BB279395C9
S1131150F695879577956795B795F111F8CFFAF4D9
S1131160BB0F11F460FF1BC06F5F7F4F8F4F9F4F0A
S113117016C0882311F096E911C0772321F09EE868
S1131180872F762F05C0662371F096E8862F70E0CE
S113119060E02AF09A95660F771F881FDAF7880FA8
S11311A09695879597F9089597F99F6780E870E079
S11311B060E008959FEF80EC089500240A941616C9
S11311C0170618060906089500240A941216130631
S11311D0140605060895092E0394000C11F48823BF
S11311E052F0BB0F40F4BF2B11F460FF04C06F5FDB
S11311F07F4F8F4F9F4F089557FD9058440F551FB1
S113120059F05F3F71F04795880F97FB991F61F084
S11312109F3F79F087950895121613061406551FFB
S1131220F2CF4695F1DF08C0161617061806991F67
S1131230F1CF86957105610508940895E894BB275C
S113124066277727CB0197F908950AD029ED3BE566
S11312504EED5EE345C00EF023C1ACCF6894A4CF3D
S1131260D3DFC8F39923D1F3C6F3DF93CF931F934E
S11312700F93FF92C92FDD2788232AF02197660F49
S1131280771F881FDAF720E030E040E85FEB9FE348
S1131290883920F0803E30F021968F774BDEECE8E1
S11312A0F0E003C047DEE9EBF0E008D18B01BE01BA
S11312B0EC01FB2E6F5771097595771F880B990BFD
S11312C038DF28E132E741E35FE316D0AF2D980120
S11312D0AE01FF900F911F91CF91DF913CDE7BCF48
S11312E00BD079CF6ADF28F06FDF18F0952309F06F
S11312F05BCF60CF1124A3CF7FDFA0F3959FD1F301
S1131300950F50E0551F629FF001729FBB27F00DAF
S1131310B11D639FAA27F00DB11DAA1F649F662704
S1131320B00DA11D661F829F2227B00DA11D621F53
S1131330739FB00DA11D621F839FA00D611D221F0D
S1131340749F3327A00D611D231F849F600D211DF1
S1131350822F762F6A2F11249F5750408AF0E1F094
S113136088234AF0EE0FFF1FBB1F661F771F881FDD
S113137091505040A9F79E3F510570F015CF5FCFB3
S11313805F3FECF3983EDCF3869577956795B795C8
S1131390F795E7959F5FC1F7FE2B880F911D9695F2
S11313A0879597F90895FA01EE0FFF1F30962105EE
S11313B0310599F16115710561F48038BFE39B072C
S11313C049F168949038810561F08038BFEF9B073C
S11313D041F0992342F5FF3FE1053105210511F163
S11313E0E8940894E795D901AA2329F4AB2FBE2FDA
S11313F0F85FD0F310C0FF5F70F4A695E0F7F739FB
S113140050F019F0FF3A38F49F779F930CD00F9067
S113141007FC905808953EF0CDCE60E070E080E87F
S11314209FE308954FE79F775F934F933F932F93E5
S113143017DF2F913F914F915F9152DF05C019F44F
S11314400EF0B2CEFBCEB6CEDFDEC8F39638C0F7D0
S113145007F80F92E8942BE33AEA48EB5FE74EDF94
S11314600F920F920F924DB75EB70F9289D0E6EEAE
S1131470F0E024D04F915F91EF91FF91E595EE1F3D
S1131480FF1F49F0FE57E0684427EE0F441FFA950A
S1131490E1F74195550B40D00F9007FE34C00895F5
S11314A09F3F31F0915020F4879577956795B795D4
S11314B0880F911D9695879597F90895DF93CF939B
S11314C01F930F93FF92EF92DF927B018C0168943C
S11314D005C0DA2EEF0110DFFE01E894A5912591F5
S11314E0359145915591AEF3EF0135DDFE0197013C
S11314F0A801DA9479F7DF90EF90FF900F911F9194
S1131500CF91DF9108959B01AC0160E070E080E829
S11315109FE374CD49CEC4CF77DEE8F39923D9F3A2
S1131520940F511DBBF39150504094F059F088230F
S113153032F0660F771F881F91505040C1F79E3FCD
S1131540510544F7880F911D9695879597F908954D
S11315505F3FACF0983E9CF0BB27869577956795E6
S1131560B79508F4B1609395C1F7BB0F58F711F420
S113157060FFE8CF6F5F7F4F8F4F9F4FE3CF5FCE0A
S1131580FA01DC01AA0FBB1F9B01AC01BF5728F471
S113159022273327442750781FC0B75188F4AB2F34
S11315A00024469537952795011CA395D2F3002076
S11315B069F0220F331F441FB395DAF30DD0B9CC71
S11315C061307105A0E88A07B94630F49B01AC018B
S11315D06627772788279078309621F020833183F7
S11315E0428353830895EE0FFF1F0024001C0BBE9B
S10F15F00790F691E02D0994F894FFCFC9
S11315FC6519623C6A4DF33C73D7923DCD23FF3D94
S113160CFAED2B3EEBFF3C3EFAED2B3E492EFF3D13
S113161C73D7923D6A4DF33C6519623C00C07F441C
S113162C00C07F4400C07F4400C07F4400C07F449E
S113163C00C07F4400C07F4400C07F4400C07F448E
S113164C00C07F4400C07F440000803FA60ADEBF78
S113165C9318443F2497FF3B751F803C2497FF3B12
S113166CDA032D3A52499D3A99BB163B04E78C3B5D
S113167CB37BF23BCA54413C295C8F3C39B4C83C23
S113168C9487053D55C1283DF1634C3D44FA6D3DAD
S113169C02BC853D97FF903D992A983DBE9F9A3D8B
S11316AC992A983D97FF903D02BC853D44FA6D3DC7
S11316BCF1634C3D55C1283D9487053DF085C93CEB
S11316CCE02D903CCA54413CB37BF23B04E78C3B89
S11316DC75021A3B7F87A23ADA032D3A0000803F49
S11316ECADB9FDBF9C7D7B3F841F2438841FA43877
S10F16FC841F24380AD7233C0000A040BF
S9030000FC
